{
  "contractName": "RandomNumber",
  "abi": [
    {
      "inputs": [],
      "stateMutability": "nonpayable",
      "type": "constructor"
    },
    {
      "inputs": [],
      "name": "owner",
      "outputs": [
        {
          "internalType": "address",
          "name": "",
          "type": "address"
        }
      ],
      "stateMutability": "view",
      "type": "function"
    }
  ],
  "bytecode": "0x608060405234801561001057600080fd5b50336000806101000a81548173ffffffffffffffffffffffffffffffffffffffff021916908373ffffffffffffffffffffffffffffffffffffffff16021790555060f78061005f6000396000f3fe6080604052348015600f57600080fd5b506004361060285760003560e01c80638da5cb5b14602d575b600080fd5b60336047565b604051603e919060a8565b60405180910390f35b60008054906101000a900473ffffffffffffffffffffffffffffffffffffffff1681565b600073ffffffffffffffffffffffffffffffffffffffff82169050919050565b6000609482606b565b9050919050565b60a281608b565b82525050565b600060208201905060bb6000830184609b565b9291505056fea2646970667358221220d8b76751f78a200fd8838dc8dae9812295a41f4b2b1ab66b474ce1274d0dafcd64736f6c634300080e0033",
  "immutableReferences": {},
  "source": "// SPDX-License-Identifier: MIT\r\npragma solidity >=0.4.22 <0.9.0;\r\n\r\ncontract RandomNumber {\r\n\r\n    address public owner;\r\n\r\n    constructor() {\r\n        owner = msg.sender;\r\n    }\r\n    function rand(uint seed) internal pure returns(uint) {\r\n        bytes32 data;\r\n        uint sum;\r\n\r\n        if(seed % 2 == 0){\r\n            data = keccak256(abi.encodePacked(seed));\r\n        }else{\r\n            data = keccak256(abi.encodePacked(keccak256(abi.encodePacked(seed))));\r\n        }\r\n\r\n        for(uint i = 0; i < 32; i++) {\r\n            sum += uint(uint8(data[i]));\r\n        }\r\n\r\n        return uint(uint8(data[sum % data.length])) + uint(uint8(data[(sum + 2) % data.length]));\r\n    }\r\n\r\n    function randSingle() internal view returns(uint){\r\n        return rand(block.timestamp);\r\n    }\r\n\r\n    function rangRange(uint a, uint b) internal view returns(uint){\r\n        return a + randSingle() % b;\r\n    }\r\n}",
  "sourcePath": "C:\\Users\\LongPham\\Desktop\\Công nghệ mới\\GameRandomGeneratorBlockChain\\contracts\\RandomNumber.sol",
  "compiler": {
    "name": "solc",
    "version": "0.8.14+commit.80d49f37.Emscripten.clang"
  },
  "schemaVersion": "3.4.7",
  "updatedAt": "2022-06-21T00:55:52.526Z",
  "devdoc": {
    "kind": "dev",
    "methods": {},
    "version": 1
  },
  "userdoc": {
    "kind": "user",
    "methods": {},
    "version": 1
  }
}