{
  "contractName": "RandomNumber",
  "abi": [
    {
      "inputs": [],
      "stateMutability": "nonpayable",
      "type": "constructor"
    },
    {
      "inputs": [],
      "name": "owner",
      "outputs": [
        {
          "internalType": "address",
          "name": "",
          "type": "address"
        }
      ],
      "stateMutability": "view",
      "type": "function",
      "constant": true
    },
    {
      "inputs": [],
      "name": "randSingle",
      "outputs": [
        {
          "internalType": "uint256",
          "name": "",
          "type": "uint256"
        }
      ],
      "stateMutability": "view",
      "type": "function",
      "constant": true
    },
    {
      "inputs": [
        {
          "internalType": "uint256",
          "name": "a",
          "type": "uint256"
        },
        {
          "internalType": "uint256",
          "name": "b",
          "type": "uint256"
        }
      ],
      "name": "rangRange",
      "outputs": [
        {
          "internalType": "uint256",
          "name": "",
          "type": "uint256"
        }
      ],
      "stateMutability": "view",
      "type": "function",
      "constant": true
    }
  ],
  "bytecode": "0x608060405234801561001057600080fd5b50336000806101000a81548173ffffffffffffffffffffffffffffffffffffffff021916908373ffffffffffffffffffffffffffffffffffffffff16021790555061057a806100606000396000f3fe608060405234801561001057600080fd5b50600436106100415760003560e01c8063644c9c13146100465780638da5cb5b14610064578063b022d76514610082575b600080fd5b61004e6100b2565b60405161005b919061027e565b60405180910390f35b61006c6100c2565b60405161007991906102da565b60405180910390f35b61009c60048036038101906100979190610326565b6100e6565b6040516100a9919061027e565b60405180910390f35b60006100bd4261010e565b905090565b60008054906101000a900473ffffffffffffffffffffffffffffffffffffffff1681565b6000816100f16100b2565b6100fb9190610395565b8361010691906103f5565b905092915050565b6000806000806002856101219190610395565b036101545783604051602001610137919061046c565b6040516020818303038152906040528051906020012091506101a4565b83604051602001610165919061046c565b6040516020818303038152906040528051906020012060405160200161018b91906104b2565b6040516020818303038152906040528051906020012091505b60005b60208110156101ed578281602081106101c3576101c26104cd565b5b1a60f81b60f81c60ff16826101d891906103f5565b915080806101e5906104fc565b9150506101a7565b5081602060ff1660028361020191906103f5565b61020b9190610395565b6020811061021c5761021b6104cd565b5b1a60f81b60f81c60ff1682602060ff16836102379190610395565b60208110610248576102476104cd565b5b1a60f81b60f81c60ff1661025c91906103f5565b92505050919050565b6000819050919050565b61027881610265565b82525050565b6000602082019050610293600083018461026f565b92915050565b600073ffffffffffffffffffffffffffffffffffffffff82169050919050565b60006102c482610299565b9050919050565b6102d4816102b9565b82525050565b60006020820190506102ef60008301846102cb565b92915050565b600080fd5b61030381610265565b811461030e57600080fd5b50565b600081359050610320816102fa565b92915050565b6000806040838503121561033d5761033c6102f5565b5b600061034b85828601610311565b925050602061035c85828601610311565b9150509250929050565b7f4e487b7100000000000000000000000000000000000000000000000000000000600052601260045260246000fd5b60006103a082610265565b91506103ab83610265565b9250826103bb576103ba610366565b5b828206905092915050565b7f4e487b7100000000000000000000000000000000000000000000000000000000600052601160045260246000fd5b600061040082610265565b915061040b83610265565b9250827fffffffffffffffffffffffffffffffffffffffffffffffffffffffffffffffff038211156104405761043f6103c6565b5b828201905092915050565b6000819050919050565b61046661046182610265565b61044b565b82525050565b60006104788284610455565b60208201915081905092915050565b6000819050919050565b6000819050919050565b6104ac6104a782610487565b610491565b82525050565b60006104be828461049b565b60208201915081905092915050565b7f4e487b7100000000000000000000000000000000000000000000000000000000600052603260045260246000fd5b600061050782610265565b91507fffffffffffffffffffffffffffffffffffffffffffffffffffffffffffffffff8203610539576105386103c6565b5b60018201905091905056fea26469706673582212204469554f0bb4bcf2aadb52446677d3d0856ad02fb9be7080e1db59f831bc609164736f6c634300080e0033",
  "immutableReferences": {},
  "source": "// SPDX-License-Identifier: MIT\r\npragma solidity >=0.4.22 <0.9.0;\r\n\r\ncontract RandomNumber {\r\n\r\n    address public owner;\r\n\r\n    constructor() {\r\n        owner = msg.sender;\r\n    }\r\n    function rand(uint seed) internal pure returns(uint) {\r\n        bytes32 data;\r\n        uint sum;\r\n\r\n        if(seed % 2 == 0){\r\n            data = keccak256(abi.encodePacked(seed));\r\n        }else{\r\n            data = keccak256(abi.encodePacked(keccak256(abi.encodePacked(seed))));\r\n        }\r\n\r\n        for(uint i = 0; i < 32; i++) {\r\n            sum += uint(uint8(data[i]));\r\n        }\r\n\r\n        return uint(uint8(data[sum % data.length])) + uint(uint8(data[(sum + 2) % data.length]));\r\n    }\r\n\r\n    function randSingle() public view returns(uint){\r\n        return rand(block.timestamp);\r\n    }\r\n\r\n    function rangRange(uint a, uint b) public view returns(uint){\r\n        return a + randSingle() % b;\r\n    }\r\n}",
  "sourcePath": "C:\\Users\\TMT\\Desktop\\GameRandomGeneratorBlockChain\\contracts\\RandomNumber.sol",
  "compiler": {
    "name": "solc",
    "version": "0.8.14+commit.80d49f37.Emscripten.clang"
  },
  "schemaVersion": "3.4.7",
  "updatedAt": "2022-06-21T04:21:51.298Z",
  "networkType": "ethereum",
  "devdoc": {
    "kind": "dev",
    "methods": {},
    "version": 1
  },
  "userdoc": {
    "kind": "user",
    "methods": {},
    "version": 1
  }
}