{
  "contractName": "RandomNumber",
  "abi": [
    {
      "inputs": [],
      "stateMutability": "nonpayable",
      "type": "constructor"
    },
    {
      "inputs": [],
      "name": "owner",
      "outputs": [
        {
          "internalType": "address",
          "name": "",
          "type": "address"
        }
      ],
      "stateMutability": "view",
      "type": "function"
    },
    {
      "inputs": [],
      "name": "randSingle",
      "outputs": [
        {
          "internalType": "uint256",
          "name": "",
          "type": "uint256"
        }
      ],
      "stateMutability": "view",
      "type": "function"
    },
    {
      "inputs": [
        {
          "internalType": "uint256",
          "name": "a",
          "type": "uint256"
        },
        {
          "internalType": "uint256",
          "name": "b",
          "type": "uint256"
        }
      ],
      "name": "randRange",
      "outputs": [
        {
          "internalType": "uint256",
          "name": "",
          "type": "uint256"
        }
      ],
      "stateMutability": "view",
      "type": "function"
    }
  ],
  "bytecode": "0x608060405234801561001057600080fd5b50336000806101000a81548173ffffffffffffffffffffffffffffffffffffffff021916908373ffffffffffffffffffffffffffffffffffffffff16021790555061065f806100606000396000f3fe608060405234801561001057600080fd5b50600436106100415760003560e01c8063644c9c1314610046578063767df052146100645780638da5cb5b14610094575b600080fd5b61004e6100b2565b60405161005b91906102c0565b60405180910390f35b61007e6004803603810190610079919061030c565b6100c2565b60405161008b91906102c0565b60405180910390f35b61009c61012c565b6040516100a9919061038d565b60405180910390f35b60006100bd42610150565b905090565b6000818310610106576040517f08c379a00000000000000000000000000000000000000000000000000000000081526004016100fd9061042b565b60405180910390fd5b8161010f6100b2565b610119919061047a565b8361012491906104da565b905092915050565b60008054906101000a900473ffffffffffffffffffffffffffffffffffffffff1681565b600080600080600285610163919061047a565b0361019657836040516020016101799190610551565b6040516020818303038152906040528051906020012091506101e6565b836040516020016101a79190610551565b604051602081830303815290604052805190602001206040516020016101cd9190610597565b6040516020818303038152906040528051906020012091505b60005b602081101561022f57828160208110610205576102046105b2565b5b1a60f81b60f81c60ff168261021a91906104da565b91508080610227906105e1565b9150506101e9565b5081602060ff1660028361024391906104da565b61024d919061047a565b6020811061025e5761025d6105b2565b5b1a60f81b60f81c60ff1682602060ff1683610279919061047a565b6020811061028a576102896105b2565b5b1a60f81b60f81c60ff1661029e91906104da565b92505050919050565b6000819050919050565b6102ba816102a7565b82525050565b60006020820190506102d560008301846102b1565b92915050565b600080fd5b6102e9816102a7565b81146102f457600080fd5b50565b600081359050610306816102e0565b92915050565b60008060408385031215610323576103226102db565b5b6000610331858286016102f7565b9250506020610342858286016102f7565b9150509250929050565b600073ffffffffffffffffffffffffffffffffffffffff82169050919050565b60006103778261034c565b9050919050565b6103878161036c565b82525050565b60006020820190506103a2600083018461037e565b92915050565b600082825260208201905092915050565b7f76616c756520612063616e277420626967676572207468616e2076616c75652060008201527f6200000000000000000000000000000000000000000000000000000000000000602082015250565b60006104156021836103a8565b9150610420826103b9565b604082019050919050565b6000602082019050818103600083015261044481610408565b9050919050565b7f4e487b7100000000000000000000000000000000000000000000000000000000600052601260045260246000fd5b6000610485826102a7565b9150610490836102a7565b9250826104a05761049f61044b565b5b828206905092915050565b7f4e487b7100000000000000000000000000000000000000000000000000000000600052601160045260246000fd5b60006104e5826102a7565b91506104f0836102a7565b9250827fffffffffffffffffffffffffffffffffffffffffffffffffffffffffffffffff03821115610525576105246104ab565b5b828201905092915050565b6000819050919050565b61054b610546826102a7565b610530565b82525050565b600061055d828461053a565b60208201915081905092915050565b6000819050919050565b6000819050919050565b61059161058c8261056c565b610576565b82525050565b60006105a38284610580565b60208201915081905092915050565b7f4e487b7100000000000000000000000000000000000000000000000000000000600052603260045260246000fd5b60006105ec826102a7565b91507fffffffffffffffffffffffffffffffffffffffffffffffffffffffffffffffff820361061e5761061d6104ab565b5b60018201905091905056fea26469706673582212206d3aaf082ab60520ddc25541d1d0a6cc0ba0aaf668f8f06dbf40a10112753b0b64736f6c634300080e0033",
  "immutableReferences": {},
  "source": "// SPDX-License-Identifier: MIT\r\npragma solidity >=0.4.22 <0.9.0;\r\n\r\ncontract RandomNumber {\r\n\r\n    address public owner;\r\n\r\n    constructor() {\r\n        owner = msg.sender;\r\n    }\r\n    function rand(uint seed) internal pure returns(uint) {\r\n        bytes32 data;\r\n        uint sum;\r\n\r\n        if(seed % 2 == 0){\r\n            data = keccak256(abi.encodePacked(seed));\r\n        }else{\r\n            data = keccak256(abi.encodePacked(keccak256(abi.encodePacked(seed))));\r\n        }\r\n\r\n        for(uint i = 0; i < 32; i++) {\r\n            sum += uint(uint8(data[i]));\r\n        }\r\n\r\n        return uint(uint8(data[sum % data.length])) + uint(uint8(data[(sum + 2) % data.length]));\r\n    }\r\n\r\n    function randSingle() public view returns(uint){\r\n        return rand(block.timestamp);\r\n    }\r\n\r\n    function randRange(uint a, uint b) public view returns(uint){\r\n        require(a < b, \"value a can't bigger than value b\");\r\n        return a + randSingle() % b;\r\n    }\r\n}",
  "sourcePath": "C:\\Users\\TMT\\Desktop\\GameRandomGeneratorBlockChain\\contracts\\RandomNumber.sol",
  "compiler": {
    "name": "solc",
    "version": "0.8.14+commit.80d49f37.Emscripten.clang"
  },
  "schemaVersion": "3.4.7",
  "updatedAt": "2022-06-21T07:44:59.760Z",
  "devdoc": {
    "kind": "dev",
    "methods": {},
    "version": 1
  },
  "userdoc": {
    "kind": "user",
    "methods": {},
    "version": 1
  }
}