{
  "contractName": "RandomNumber",
  "abi": [
    {
      "inputs": [],
      "stateMutability": "nonpayable",
      "type": "constructor"
    },
    {
      "inputs": [
        {
          "internalType": "uint256",
          "name": "",
          "type": "uint256"
        }
      ],
      "name": "historyInfos",
      "outputs": [
        {
          "internalType": "address",
          "name": "player",
          "type": "address"
        },
        {
          "internalType": "uint256",
          "name": "reward",
          "type": "uint256"
        }
      ],
      "stateMutability": "view",
      "type": "function",
      "constant": true
    },
    {
      "inputs": [],
      "name": "owner",
      "outputs": [
        {
          "internalType": "address",
          "name": "",
          "type": "address"
        }
      ],
      "stateMutability": "view",
      "type": "function",
      "constant": true
    },
    {
      "inputs": [],
      "name": "randSingle",
      "outputs": [
        {
          "internalType": "uint256",
          "name": "",
          "type": "uint256"
        }
      ],
      "stateMutability": "view",
      "type": "function",
      "constant": true
    },
    {
      "inputs": [
        {
          "internalType": "uint256",
          "name": "a",
          "type": "uint256"
        },
        {
          "internalType": "uint256",
          "name": "b",
          "type": "uint256"
        }
      ],
      "name": "randRange",
      "outputs": [
        {
          "internalType": "uint256",
          "name": "",
          "type": "uint256"
        }
      ],
      "stateMutability": "view",
      "type": "function",
      "constant": true
    }
  ],
  "bytecode": "0x6080604052600060015534801561001557600080fd5b5033600360006101000a81548173ffffffffffffffffffffffffffffffffffffffff021916908373ffffffffffffffffffffffffffffffffffffffff16021790555061074d806100666000396000f3fe608060405234801561001057600080fd5b506004361061004c5760003560e01c80633c6410ea14610051578063644c9c1314610082578063767df052146100a05780638da5cb5b146100d0575b600080fd5b61006b6004803603810190610066919061037a565b6100ee565b6040516100799291906103f7565b60405180910390f35b61008a610142565b6040516100979190610420565b60405180910390f35b6100ba60048036038101906100b5919061043b565b610152565b6040516100c79190610420565b60405180910390f35b6100d86101c2565b6040516100e5919061047b565b60405180910390f35b600081815481106100fe57600080fd5b90600052602060002090600202016000915090508060000160009054906101000a900473ffffffffffffffffffffffffffffffffffffffff16908060010154905082565b600061014d426101e8565b905090565b6000818310610196576040517f08c379a000000000000000000000000000000000000000000000000000000000815260040161018d90610519565b60405180910390fd5b6000826101a1610142565b6101ab9190610568565b846101b691906105c8565b90508091505092915050565b600360009054906101000a900473ffffffffffffffffffffffffffffffffffffffff1681565b6000806000806002856101fb9190610568565b0361022e5783604051602001610211919061063f565b60405160208183030381529060405280519060200120915061027e565b8360405160200161023f919061063f565b604051602081830303815290604052805190602001206040516020016102659190610685565b6040516020818303038152906040528051906020012091505b60005b60208110156102c75782816020811061029d5761029c6106a0565b5b1a60f81b60f81c60ff16826102b291906105c8565b915080806102bf906106cf565b915050610281565b5081602060ff166002836102db91906105c8565b6102e59190610568565b602081106102f6576102f56106a0565b5b1a60f81b60f81c60ff1682602060ff16836103119190610568565b60208110610322576103216106a0565b5b1a60f81b60f81c60ff1661033691906105c8565b92505050919050565b600080fd5b6000819050919050565b61035781610344565b811461036257600080fd5b50565b6000813590506103748161034e565b92915050565b6000602082840312156103905761038f61033f565b5b600061039e84828501610365565b91505092915050565b600073ffffffffffffffffffffffffffffffffffffffff82169050919050565b60006103d2826103a7565b9050919050565b6103e2816103c7565b82525050565b6103f181610344565b82525050565b600060408201905061040c60008301856103d9565b61041960208301846103e8565b9392505050565b600060208201905061043560008301846103e8565b92915050565b600080604083850312156104525761045161033f565b5b600061046085828601610365565b925050602061047185828601610365565b9150509250929050565b600060208201905061049060008301846103d9565b92915050565b600082825260208201905092915050565b7f76616c756520612063616e277420626967676572207468616e2076616c75652060008201527f6200000000000000000000000000000000000000000000000000000000000000602082015250565b6000610503602183610496565b915061050e826104a7565b604082019050919050565b60006020820190508181036000830152610532816104f6565b9050919050565b7f4e487b7100000000000000000000000000000000000000000000000000000000600052601260045260246000fd5b600061057382610344565b915061057e83610344565b92508261058e5761058d610539565b5b828206905092915050565b7f4e487b7100000000000000000000000000000000000000000000000000000000600052601160045260246000fd5b60006105d382610344565b91506105de83610344565b9250827fffffffffffffffffffffffffffffffffffffffffffffffffffffffffffffffff0382111561061357610612610599565b5b828201905092915050565b6000819050919050565b61063961063482610344565b61061e565b82525050565b600061064b8284610628565b60208201915081905092915050565b6000819050919050565b6000819050919050565b61067f61067a8261065a565b610664565b82525050565b6000610691828461066e565b60208201915081905092915050565b7f4e487b7100000000000000000000000000000000000000000000000000000000600052603260045260246000fd5b60006106da82610344565b91507fffffffffffffffffffffffffffffffffffffffffffffffffffffffffffffffff820361070c5761070b610599565b5b60018201905091905056fea2646970667358221220adbaa2845a335d3f997f9358f6c5bd491f9ad1a052e18debe9975fe6d0373ed464736f6c634300080e0033",
  "immutableReferences": {},
  "source": "// SPDX-License-Identifier: MIT\r\npragma solidity >=0.4.22 <0.9.0;\r\n\r\ncontract RandomNumber {\r\n\r\n    struct HistoryInfo {\r\n        address player;\r\n        uint reward;\r\n    }\r\n    HistoryInfo[] public historyInfos;\r\n    uint256 private _tail = 0;\r\n    mapping (uint256 => HistoryInfo) private _historyInfo;\r\n    address public owner;\r\n\r\n    constructor() {\r\n        owner = msg.sender;\r\n    }\r\n    function rand(uint seed) internal pure returns(uint) {\r\n        bytes32 data;\r\n        uint sum;\r\n\r\n        if(seed % 2 == 0){\r\n            data = keccak256(abi.encodePacked(seed));\r\n        }else{\r\n            data = keccak256(abi.encodePacked(keccak256(abi.encodePacked(seed))));\r\n        }\r\n\r\n        for(uint i = 0; i < 32; i++) {\r\n            sum += uint(uint8(data[i]));\r\n        }\r\n\r\n        return uint(uint8(data[sum % data.length])) + uint(uint8(data[(sum + 2) % data.length]));\r\n    }\r\n\r\n    function randSingle() public view returns(uint){\r\n        return rand(block.timestamp);\r\n    }\r\n\r\n    function randRange(uint a, uint b) public view returns(uint){\r\n        require(a < b, \"value a can't bigger than value b\");\r\n        uint result = a + randSingle() % b;\r\n        \r\n        // HistoryInfo memory _historyInfo;\r\n        // _historyInfo.player = msg.sender;\r\n        // _historyInfo.reward = result;\r\n        //  _historyInfos[_tail] = _historyInfo;\r\n        //  _tail++;\r\n        //  emit BET(_tail - 1, msg.sender, msg.value, block.number, result);\r\n\r\n        return result;\r\n    }\r\n\r\n}",
  "sourcePath": "C:\\Users\\LongPham\\Desktop\\Cng ngh mi\\GameRandomGeneratorBlockChain\\contracts\\RandomNumber.sol",
  "compiler": {
    "name": "solc",
    "version": "0.8.14+commit.80d49f37.Emscripten.clang"
  },
  "schemaVersion": "3.4.7",
  "updatedAt": "2022-06-22T16:24:44.788Z",
  "networkType": "ethereum",
  "devdoc": {
    "kind": "dev",
    "methods": {},
    "version": 1
  },
  "userdoc": {
    "kind": "user",
    "methods": {},
    "version": 1
  }
}